:020000040800F2
:1000000060060020B10100087902000871020008B2
:10001000750200086B020008D90500080000000006
:1000200000000000000000000000000011030008B4
:100030006F02000800000000ED020008FD03000848
:10004000CB010008CB010008CB010008CB01000860
:10005000CB010008CB010008CB010008CB01000850
:10006000CB010008CB010008CB010008CB01000840
:10007000CB010008CB010008CB010008CB01000830
:10008000CB010008CB010008CB010008CB01000820
:10009000CB010008CB010008CB010008CB01000810
:1000A000CB010008CB010008CB010008CB01000800
:1000B000CB010008CB010008CB010008CB010008F0
:1000C000CB010008CB010008CB010008CB010008E0
:1000D000CB010008CB010008CB010008CB010008D0
:1000E000CB010008CB010008CB010008CB010008C0
:1000F000CB010008CB010008CB010008CB010008B0
:10010000CB010008CB010008CB010008CB0100089F
:10011000CB010008CB010008610400086D04000851
:10012000CB010008CB010008CB010008CB0100087F
:1001300000F002F800F02CF80AA090E8000C8244CD
:100140008344AAF10107DA4501D100F021F8AFF2AA
:10015000090EBAE80F0013F0010F18BFFB1A43F0A5
:1001600001031847800400009004000000230024CD
:1001700000250026103A28BF78C1FBD8520728BFB7
:1001800030C148BF0B6070471FB51FBD10B510BD13
:1001900000F031F81146FFF7F7FF00F01FFA00F00A
:1001A0004FF803B4FFF7F2FF03BC00F057F800006C
:1001B0000948804709480047FEE7FEE7FEE7FEE7FB
:1001C000FEE7FEE7FEE7FEE7FEE7FEE70448054937
:1001D000054A064B70470000010400083101000881
:1001E0006000002060060020600200206002002005
:1001F000704770477047754600F02CF8AE46050012
:100200006946534620F00700854618B020B5FFF731
:10021000DDFFBDE820404FF000064FF000074FF033
:1002200000084FF0000B21F00701AC46ACE8C00914
:10023000ACE8C009ACE8C009ACE8C0098D4670471D
:1002400010B50446AFF300802046BDE81040FFF72C
:10025000A8BF000000487047000000200149182096
:10026000ABBEFEE726000200704700BFFEE7704706
:1002700000BFFEE700BFFEE77047000070B5002139
:1002800000230F22C47804B3154C246804F4E064FE
:10029000C4F5E064210AC1F10403CA40447804FAB9
:1002A00003F184781440214309010E4C0678A155CE
:1002B000047804F01F050124AC4005786D11AD00F1
:1002C00005F1E025C5F8004109E0047804F01F05B8
:1002D0000124AC40044D0678761145F8264070BDE7
:1002E0000CED00E000E400E080E100E07047000079
:1002F00029B1064AD2690243044BDA6104E0034A99
:10030000D2698243014BDA6170470000001002405D
:10031000704710B500F002F810BD00000CB50020C9
:10032000019000903348006840F480303149086003
:1003300000BF3048006800F4003000900198401C75
:100340000190009818B90198B0F5A06FF1D1294833
:10035000006800F4003010B10120009001E000209E
:1003600000900098012843D12348006840F0100015
:10037000214908600846006820F00300086008462C
:10038000006840F0020008601A4840681949486057
:100390000846406848600846406840F4806048600D
:1003A0000846406820F47C1048600846406840F4E5
:1003B000E81048600846006840F08070086000BFA0
:1003C0000C48006800F000700028F9D00948406827
:1003D00020F00300074948600846406840F00200EA
:1003E000486000BF0348406800F00C000828F9D1BD
:1003F0000CBD0000001002400020024070470000C9
:1004000010B51348006840F0010011490860084623
:100410004068104908400E494860084600680E4987
:1004200008400B4908600846006820F480200860F6
:100430000846406820F4FE0048604FF41F008860C2
:10044000FFF767FF4FF000600449086010BD00002F
:10045000001002400000FFF8FFFFF6FE08ED00E08C
:10046000002001490882704700100040704721B108
:10047000028842F00102028004E002884FF6FE7317
:100480001A40028070471AB183890B43838102E0CE
:1004900083898B4383817047002202881D4B9842D9
:1004A0000ED01D4B98420BD0B0F1804F08D01B4BA3
:1004B000984205D01A4B984202D01A4B984204D168
:1004C0004FF68F731A404B881A43174B984207D048
:1004D000164B984204D04FF6FF431A40CB881A437C
:1004E00002808B8883850B8803850A4B98420BD04A
:1004F000094B984208D00E4B984205D00D4B9842BC
:1005000002D00D4B984201D10B7A038601238382DE
:1005100070470000002C01400034014000040040FE
:1005200000080040000C0040001000400014004093
:100530000040014000440140004801404FF6FF7177
:10054000818000210180C18041800172704721B10A
:10055000028842F00402028004E002884FF6FB7336
:100560001A400280704700001FB537208DF8000048
:1005700001208DF8030000208DF801008DF80200A5
:100580006846FFF77BFE01212020FFF7B1FE01A89E
:10059000FFF7D4FF40F2F310ADF804000020ADF8EF
:1005A000060040F28F10ADF808000020ADF80A00F8
:1005B00001A90848FFF770FF01210648FFF7C7FFB0
:1005C00001210448FFF753FF012211460148FFF7BC
:1005D0005AFF1FBD0014004000BFFEE7FFF7C4FF35
:1005E00000BFFEE7F40500080000002060060000E0
:0405F0006C01000892
:0400000508000131BD
:00000001FF
